:100000000C94E5000C9402010C9402010C94020182
:100010000C9402010C9402010C9402010C94020154
:100020000C9402010C9402010C9402010C94020144
:100030000C9402010C9402010C9402010C94020134
:100040000C9402010C9402010C9402010C94020124
:100050000C9402010C9402010C9402010C94020114
:100060000C9402010C9402017101A802A802A802DA
:10007000A802A802A802A802A802A802A802A80230
:10008000A802A802A802A802A802A802A802A80220
:10009000A802A802740177017A017D018001830121
:1000A000860189018C018F019201950198019B01C4
:1000B0009E01A101A401A701AA01AD01B001B301F4
:1000C000B601B901BC01BF01C201C501C801CB0124
:1000D000CE01D101D401D701DA01DD01E001E30154
:1000E000E601E901EC01EF01F201F501F801FB0184
:1000F000FE010102040207020A020D0210021302AD
:10010000160219021C021F022202250228022B02DB
:100110002E023102340237023A023D02400243020B
:10012000460249024C024F025202550258025B023B
:100130005E026102640267026A026D02700273026B
:10014000760279027C027F028202850288028B029B
:100150008E02A802A802A802A802A802A802A80269
:10016000A802A802A802A802A802A802A802A8023F
:10017000A802A802A802A802A802A802A802A8022F
:10018000A802A802A802A802A802A802A802A8021F
:10019000A802A802A802A802A802A802A802A8020F
:1001A000A802A802A802A802A802A802A802910216
:1001B000A802A80294029702A802A8029A029D022D
:1001C000A802A002A302A802A60211241FBECFEF1C
:1001D000D8E0DEBFCDBF11E0A0E0B1E0E8E8F8E193
:1001E00002C005900D92AA38B107D9F711E0AAE82C
:1001F000B1E001C01D92AE38B107E1F70E94C5021F
:100200000C94420C0C9400000F931F93CF93DF9338
:100210008C0182E090E00E942408EC0180E090E0F4
:1002200020E030E0F801E80FF91F40814A3031F05A
:10023000FE01E20FF31F40832F5F3F4F0196823094
:10024000910581F7C801BE010E943A09CE010E94C2
:10025000D10880E090E0DF91CF911F910F91089538
:100260000F931F93CF93DF938C0180E185B92EE428
:1002700031E0C9010197F1F715B8C9010197F1F70C
:1002800088E185B9C9010197F1F715B8C90101974E
:10029000F1F780E797E10197F1F7C8010E943A0969
:1002A000E80109900020E9F72197C01BD10B40E03D
:1002B00050E030E020E06EE471E05CC1F801E40F52
:1002C000F51F808190E0FC013A97E13BF10508F0D1
:1002D0003FC1EC5CFF4FEE0FFF1F0590F491E02D46
:1002E000099435E121E134C134E320E331C134E341
:1002F00028E32EC134E324E32BC134E32CE328C1EB
:1003000034E322E325C134E32AE322C134E326E3C4
:100310001FC134E32EE31CC134E321E319C134E3EC
:1003200029E316C134E325E313C134E32DE310C1FF
:1003300034E323E30DC134E32BE30AC134E327E3C1
:1003400007C134E32FE304C13CE320E301C13CE3F4
:1003500028E3FEC03CE324E3FBC03CE32CE3F8C00D
:100360003CE322E3F5C03CE32AE3F2C03CE326E3AE
:10037000EFC03CE32EE3ECC03CE321E3E9C03CE307
:1003800029E3E6C03CE325E3E3C03CE32DE3E0C022
:100390003CE323E3DDC03CE32BE3DAC03CE327E3AB
:1003A000D7C03CE32FE3D4C032E320E3D1C032E333
:1003B00028E3CEC032E324E3CBC032E32CE3C8C051
:1003C00032E322E3C5C032E32AE3C2C032E326E3CC
:1003D000BFC032E32EE3BCC032E321E3B9C032E355
:1003E00029E3B6C032E325E3B3C032E32DE3B0C066
:1003F00032E323E3ADC032E32BE3AAC032E327E3C9
:10040000A7C032E32FE3A4C03AE320E3A1C03AE35C
:1004100028E39EC03AE324E39BC03AE32CE398C070
:100420003AE322E395C03AE32AE392C03AE326E3B3
:100430008FC03AE32EE38CC03AE321E389C03AE36C
:1004400029E386C03AE325E383C03AE32DE380C085
:100450003AE323E37DC03AE32BE37AC03AE327E3B0
:1004600077C03AE32FE374C036E320E371C036E38C
:1004700028E36EC036E324E36BC036E32CE368C0A8
:1004800036E322E365C036E32AE362C036E326E3BF
:100490005FC036E32EE35CC036E321E359C036E3A8
:1004A00029E356C036E325E353C036E32DE350C0BD
:1004B00036E323E34DC036E32BE34AC036E327E3BC
:1004C00047C036E32FE344C03EE320E341C03EE3B0
:1004D00028E33EC03EE324E33BC03EE32CE338C0C8
:1004E0003EE322E335C03EE32AE332C03EE326E3A7
:1004F0002FC03EE32EE32CC03EE321E329C03EE3C0
:1005000029E326C03EE325E323C03EE32DE320C0DC
:100510003EE323E31DC03EE32BE31AC03EE327E3A3
:1005200017C035E32BE314C03DE320E311C03DE3E6
:1005300028E30EC03DE322E30BC03DE32AE308C0FD
:100540003DE32EE305C03DE321E302C03DE325E3A7
:1005500035B9CB010197F1F715B8CB010197F1F748
:1005600025B9CB010197F1F715B8CB010197F1F748
:100570004F5F5F4F4C175D070CF4A0CE80E090E01A
:10058000DF91CF911F910F9108952F923F924F923B
:100590005F926F927F928F929F92AF92BF92CF9213
:1005A000DF92EF92FF920F931F93DF93CF93CDB71C
:1005B000DEB766970FB6F894DEBF0FBECDBF8FE3F0
:1005C00084B915B88AE892E028EC30E0F901319757
:1005D000F1F70197D9F720E030E040E060E1F62E36
:1005E0006EE471E008EC10E05CE2C52E51E0D52E1F
:1005F000A0E2BEE458E12630310509F421C52730D8
:10060000310554F4253031050CF01CC5233031057B
:10061000ECF437FF13C52FC02930310509F410C59C
:100620002A30310544F42730310509F40BC5283050
:10063000310509F50DC02B30310509F401C52B300A
:100640003105ACF02C303105B1F413C044E116C0D3
:10065000F5B8CB010197F1F715B8CB010197F1F788
:1006600055B9CB010197F1F715B8CB0113C042E1A1
:1006700005C043E103C028303105F1F045B9CB0195
:100680000197F1F715B8CB010197F1F72115310565
:1006900021F4CD010197F1F70FC02130310511F49C
:1006A000C601F8CF2A30310539F484EF91E0F80122
:1006B0003197F1F70197D9F72F5F3F4F2D30310573
:1006C00009F099CF88EC90E00197F1F71092C500FE
:1006D00087E68093C4008091C0008D7F8093C00026
:1006E00088E18093C10096E09093C20080918100E0
:1006F0008360809381009AB984E091E00E9424088D
:100700005C0182E290E00E9424088B839C8382E259
:1007100090E00E9424088D839E8382E290E00E94F4
:1007200024088F83988782E290E00E9424088987BA
:100730009A87442455241A82198295012D5F3E4FD1
:100740003C8B2B8B06C049815A81405E5F4F5A8398
:1007500049831092850010928400809184009091CA
:10076000850034E0969587953A95E1F7F50115C037
:100770008091C00087FFFCCF8091C600819380915B
:10078000840090918500AB89BC89EA17FB0741F092
:1007900024E0969587952A95E1F78955924044F390
:1007A000EB89FC89108281E190E00E942408182FD7
:1007B000092F81E190E00E942408D82EC92E00D094
:1007C00000D000D0EDB7FEB73196ADB7BEB71196E9
:1007D0001C93018320E031E03383228344E051E025
:1007E000558344830E946A098DB79EB706960FB65B
:1007F000F8949EBF0FBE8DBFC501612F702F0E9460
:100800005009009709F45AC0EE24FF2413C0B50123
:100810006E0D7F1D8D2D9C2DA9010E9441098D2DEE
:100820009C2D612F702F0E9431090097D1F0089400
:10083000E11CF11CD5010D900020E9F7CD014D2DF3
:100840005C2DDA010D900020E9F79D012150304028
:10085000241B350B8A199B09821B930BE816F9069A
:10086000B0F2812F902F0E94D1088D2D9C2D0E94D7
:10087000D108D5010D900020E9F7AA19BB091297FC
:10088000F501EE0DFF1DC70140E050E010C02081D2
:1008900031812C3231F44130510569F041E050E0B2
:1008A00004C02D3011F43A3089F0019631968A1740
:1008B0009B0768F30BC0313461F008C0812F902F83
:1008C0000E94D1088D2D9C2D0E94D108EE24EA941F
:1008D000FE2C87010F5F1F4F84E090E00E942408E8
:1008E000782E692ED5010D900020E9F7AA19BB09D1
:1008F000139715012E0C3F1CF10133C09281238107
:1009000081818A3231F5EDB7FEB738970FB6F8948A
:10091000FEBF0FBEEDBF3196ADB7BEB711967C924C
:1009200061824AE051E05383428394831582268397
:1009300017820E946A098DB79EB708960FB6F89481
:100940009EBF0FBE8DBF99E2E916F1040CF07BC08B
:100950000CC09D3019F42A3009F475C00F5F1F4F89
:1009600031960A171B0750F26EC084E090E00E9497
:100970002408D82EC92E09E210E00E191F09C8015B
:1009800003960E942408982E892EB7016F5F7F4F2F
:100990006A0D7B1DA8010E944109292D382DC9012E
:1009A000FC0120E030E004C090E028273927319690
:1009B00080818823C9F700D000D000D0EDB7FEB702
:1009C0003196ADB7BEB71196DC92C1824FE051E0CF
:1009D00053834283358324830E946A092D2D3C2D45
:1009E000C9018C018DB79EB706960FB6F8949EBFCD
:1009F0000FBE8DBF06C090E00E942909D8018D93DB
:100A00008D01F80180818823B1F78D2D9C2D672DF4
:100A1000762D0E943109009771F4872D962D0E9442
:100A2000D1088D2D9C2D0E94D108892D982D0E94D2
:100A3000D10881E30DC08D2D9C2D0E94D108892DF8
:100A4000982D0E94D108872D962D0E94D10880E311
:100A5000FFEFEF16FFEFFF0609F466C2813309F0DE
:100A600063C28BB182708BB9D5010D900020E9F77C
:100A70001197AA19BB0920E030E04FEF5FEF5E8BC2
:100A80004D8B0FEF1FEF66246A94762CCC24CA940A
:100A9000DC2C88248A94982C44244A94542C3AC000
:100AA000F10180818D30D9F18A30C9F18A32B9F1F2
:100AB0008C3239F52F5F3F4F23303105C9F0243098
:100AC00031053CF42130310571F022303105C9F493
:100AD0000DC02930310581F02A30310579F02730F9
:100AE000310579F407C0FE8AED8A0BC0870109C081
:100AF000370107C0670105C0470103C0270141E373
:100B000001C040E30894211C311C403349F408948F
:100B1000E11CF11CEA16FB0618F240E301C041E3B8
:100B20002D893E892F5F3F4F19F420E030E009C046
:100B300020E030E08D899E898017910714F421E030
:100B400030E00615170574F46C147D045CF4C814C9
:100B5000D90444F480E090E0841495042CF481E0FE
:100B600090E002C080E090E0232B09F4C2C1892B01
:100B700009F4BFC1413309F0BCC184E090E00E9498
:100B800024088B879C8784E090E00E9424088D874E
:100B90009E8784E090E00E9424088F87988B85E0F0
:100BA00090E00E942408898B9A8B8BE090E00E9451
:100BB0002408382E292E8BE090E00E942408F82E7D
:100BC000E92EAD89BE890A1B1B0B073011050CF4F9
:100BD00085C048185908B7E04B1651040CF47EC084
:100BE0006D897E896F5F7F4F6A0D7B1D8B859C852C
:100BF00042E050E00E944109ED89FE893396FE8B68
:100C0000ED8BBF016A0D7B1D8D859E8542E050E016
:100C10000E9441092D893E892E5F3F4F2A0D3B1DC1
:100C20008F859889B90142E050E00E944109B401E2
:100C30006F5F7F4F6A0D7B1D89899A8942E050E082
:100C40000E944109B4016D5F7F4F6A0D7B1D832DAA
:100C5000922D42E050E00E944109B4016B5F7F4F4A
:100C60006A0D7B1D8F2D9E2D42E050E00E944109B0
:100C70004DB75EB7405150400FB6F8945EBF0FBEFF
:100C80004DBFEDB7FEB731962F81ADB7BEB7119608
:100C90002C933885318342E151E05383428334827F
:100CA0002582598956838A898783F086E1869B85C8
:100CB0009287AC85A387BD85B4872E8525873F8520
:100CC0003687488947870E946A098DB79EB7409644
:100CD0000FB6F8949EBF0FBE8DBF06C08F8198855A
:100CE0006AE271E00E943A09C601861997094597A0
:100CF0000CF47FC023010894411C511CF501E60D42
:100D0000F71D09C081818E3451F03196833539F059
:100D10000894411C511C4C145D04A4F36AC0F501F5
:100D2000E40DF51D0081B3016F5F7F4F6A0D7B1DE0
:100D30008B859C8542E050E00E944109B3016D5FC4
:100D40007F4F6A0D7B1DA20146195709455050403F
:100D5000832D922D0E944109F501EC0DFD1D319767
:100D60001081B2016E5F7F4F6A0D7B1D89899A8960
:100D700043E050E00E944109B2016B5F7F4F6A0D72
:100D80007B1DA60146505040441955098F2D9E2DBC
:100D90000E944109ADB7BEB750970FB6F894BEBFD9
:100DA0000FBEADBFEDB7FEB731962D8111962C93D6
:100DB0003E81318340E351E05383428304831582B3
:100DC0005B8556838C8587833086218612871386C0
:100DD00099899487AA89A587F686E7860E946A0979
:100DE000EDB7FEB770960FB6F894FEBF0FBEEDBF1D
:100DF00006C08D819E8166E471E00E943A09C401BB
:100E00008C199D0908970CF455C036010894611C93
:100E1000711CF501EC0DFD1D08C081813196830127
:100E20000F5F1F4F8C3229F0380168147904ACF33E
:100E300041C0B6016F5F7F4F6A0D7B1DC094D09497
:100E4000C60CD71C832D922DA6010E9441090A0DC4
:100E50001B1D089481089108861897088F2D9E2DD8
:100E6000B801A4010E9441092DB73EB72850304077
:100E70000FB6F8943EBF0FBE2DBFEDB7FEB731964B
:100E80002985ADB7BEB711962C933A8531834CE4D2
:100E900051E053834283F482E582368227820E94A6
:100EA0006A098DB79EB708960FB6F8949EBF0FBE1D
:100EB0008DBF06C089859A8566E471E00E943A0973
:100EC0008B859C850E94D1088D859E850E94D108C6
:100ED0008F8598890E94D10889899A890E94D108B2
:100EE000832D922D0E94D1088F2D9E2D0E94D10816
:100EF00012C08F81988566E471E00E943A098D8165
:100F00009E8166E471E00E943A0989859A8566E4CB
:100F100071E00E943A098B819C816D817E810E94E3
:100F200030014424552415CC93E2491651040CF4A5
:100F30007BC05A9AF50101900020E9F7EA19FB09F4
:100F4000B197A981BA81AE17BF0710F01A82198232
:100F500081E190E00E942408D82EC92E81E190E022
:100F60000E942408F82EE92E69817A816A0D7B1D82
:100F70008D2D9C2D40E150E00E94410969817A81CC
:100F8000605F7F4F6A0D7B1D8F2D9E2D40E150E0ED
:100F90000E9441098D2D9C2D0E9404018F2D9E2DB4
:100FA0000E94040182E290E00E942408182F092F79
:100FB000EDB7FEB738970FB6F894FEBF0FBEEDBF82
:100FC0003196ADB7BEB711968C93918323E631E08D
:100FD00033832283D482C582F682E7820E946A0923
:100FE0004DB75EB7485F5F4F0FB6F8945EBF0FBE58
:100FF0004DBF8B819C81612F702F0E9430018D2D00
:101000009C2D0E94D1088F2D9E2D0E94D108812FEA
:10101000902F0E94D10888EB98E8E8ECF0E0319737
:10102000F1F70197D1F78FCB0894411C511C8B81AC
:101030009C8169E671E00E9430018BCB4CE11ECBB4
:1010400040E11CCB41E11ACBCF93DF93BC0182304E
:10105000910510F462E070E0A0918C01B0918D01D7
:10106000ED01E0E0F0E040E050E021C088819981AE
:101070008617970769F48A819B81309719F09383CB
:10108000828304C090938D0180938C01FE0134C053
:101090006817790738F44115510519F08417950739
:1010A00008F4AC01FE018A819B819C01E901209733
:1010B000E9F641155105A9F1CA01861B970B049762
:1010C00008F4BA01E0E0F0E02AC08D919C911197FC
:1010D00084179507F9F46417750781F412968D91BA
:1010E0009C911397309719F09383828304C0909357
:1010F0008D0180938C01FD0132964FC0CA01861B81
:10110000970BFD01E80FF91F6193719302978D937F
:101110009C9343C0FD01828193819C01D90110976A
:10112000A1F680918A0190918B01892B41F48091E5
:1011300086019091870190938B0180938A01409161
:101140008801509189014115510541F44DB75EB7B1
:101150008091840190918501481B590B20918A014F
:1011600030918B0124173507B0F4CA01821B930B11
:101170008617970780F0AB014E5F5F4F8417950786
:1011800050F0420F531F50938B0140938A01F90195
:101190006193719302C0E0E0F0E0CF01DF91CF9165
:1011A0000895CF93DF93009709F450C0EC01229784
:1011B0001B821A82A0918C01B0918D01109709F1C8
:1011C00040E050E0AC17BD0708F1BB83AA83FE01E5
:1011D00021913191E20FF31FAE17BF0779F48D9182
:1011E0009C911197280F391F2E5F3F4F3983288319
:1011F00012968D919C9113979B838A83411551057B
:1012000071F4D0938D01C0938C0120C012968D9102
:101210009C911397AD01009711F0DC01D3CFFA0137
:10122000D383C28321913191E20FF31FCE17DF07E1
:1012300069F488819981280F391F2E5F3F4FFA0189
:10124000318320838A819B8193838283DF91CF9135
:1012500008959111089581568A5108F48052855855
:101260000895FB01DC018D91019080190110D9F3E3
:10127000990B0895FB01DC0101900D920020E1F72C
:101280000895FB01DC014150504048F001900D925F
:101290000020C9F701C01D9241505040E0F7089569
:1012A000FB0151915523A9F0BF01DC014D91451778
:1012B0004111E1F759F4CD010190002049F04D9121
:1012C00040154111C9F3FB014111EFCF81E090E0DE
:1012D00001970895AEE0B0E0E0E7F9E00C94190C56
:1012E0000D891E8986E08C831A8309838FEF9FE71F
:1012F0009E838D839E01275E3F4FCE0101966F89AD
:10130000788DA9010E948E092F813885020F131F45
:10131000F80110822E96E4E00C94350CABE0B0E0BE
:10132000E4E9F9E00C940B0C3C012B015A01FC019F
:1013300017821682838181FD03C06FEF7FEFC6C1E4
:101340009AE0892E1E010894211C311CF30123818F
:10135000F20123FD859123FF81912F01882309F458
:10136000B2C1853239F423FD859123FF81912F018C
:10137000853229F490E0B3010E94810BE7CF982FCA
:10138000FF24EE249924FFE1FF15D0F09B3269F091
:101390009C3228F4903259F0933291F40EC09D3271
:1013A00049F0903369F441E024C052E0F52A84E02A
:1013B000F82A28C098E0F92A25C0E0E1FE2A22C0D8
:1013C000F7FC29C0892F80538A3070F4F6FE05C0DF
:1013D000989C902C1124980E15C0E89CE02C1124A8
:1013E000E80EF0E2FF2A0EC09E3229F4F6FC6BC133
:1013F00040E4F42A07C09C3619F450E8F52A02C0EC
:10140000983649F4F20123FD959123FF91912F0124
:10141000992309F0B8CF892F8554833018F0805272
:10142000833038F444E050E0A40EB51E5FE35983E6
:101430000FC0933631F0933779F0933509F056C0E9
:1014400020C0F5018081898342E050E0A40EB51EE2
:10145000610101E010E012C0F501C080D180F6FC0E
:1014600003C06FEF7FEF02C0692D70E042E050E0F3
:10147000A40EB51EC6010E94760B8C015FE7F52213
:1014800014C0F501C080D180F6FC03C06FEF7FEF80
:1014900002C0692D70E042E050E0A40EB51EC60106
:1014A0000E946B0B8C0150E8F52AF3FE07C01AC0AE
:1014B00080E290E0B3010E94810BEA948E2D90E0CF
:1014C00008171907A8F30EC0F601F7FC8591F7FE7F
:1014D00081916F0190E0B3010E94810BE110EA94C9
:1014E000015010400115110579F7EAC0943611F04A
:1014F000993669F5F7FE08C0F501208131814281F6
:10150000538184E090E00AC0F501808191819C01C3
:10151000442737FD4095542F82E090E0A80EB91E75
:101520009FE6F92257FF09C05095409530952195C7
:101530003F4F4F4F5F4FE0E8FE2ACA01B901A101BA
:101540002AE030E00E94AD0BD82ED21840C095376B
:1015500029F41F2D1F7E2AE030E01DC01F2D197FAA
:101560009F3661F0903720F4983509F0ACC00FC079
:10157000903739F0983709F0A6C004C028E030E071
:101580000AC0106114FD146020E130E004C014FDB5
:10159000166020E132E017FF08C0F501608171811B
:1015A0008281938144E050E008C0F50180819181FF
:1015B000BC0180E090E042E050E0A40EB51EA10125
:1015C0000E94AD0BD82ED2188FE7F82EF122F6FE2E
:1015D0000BC05EEFF522D91438F4F4FE07C0F2FC1C
:1015E00005C08FEEF82202C01D2D01C0192DF4FE9A
:1015F0000DC0FE01ED0DF11D8081803319F499EECF
:10160000F92208C01F5FF2FE05C003C08F2D867847
:1016100009F01F5F0F2DF3FC14C0F0FE0FC01E1564
:1016200010F09D2C0BC09D2C9E0C911A1E2D06C0F7
:1016300080E290E0B3010E94810B1F5F1E15C0F392
:1016400004C01E1510F4E11A01C0EE2404FF0FC0FF
:1016500080E390E0B3010E94810B02FF1DC001FDF9
:1016600003C088E790E00EC088E590E00BC0802FB3
:10167000867891F001FF02C08BE201C080E2F7FCA6
:101680008DE290E0B3010E94810B06C080E390E000
:10169000B3010E94810B9A94D914C0F3DA94F1013A
:1016A000ED0DF11D808190E0B3010E94810BDD20E2
:1016B000A9F706C080E290E0B3010E94810BEA9492
:1016C000EE20C1F743CEF30166817781CB012B96E3
:1016D000E2E10C94270CFC01059061507040011070
:1016E000D8F7809590958E0F9F1F0895FC0161504B
:1016F000704001900110D8F7809590958E0F9F1F34
:1017000008950F931F93CF93DF938C01EB018B818F
:1017100081FF1BC082FF0DC02E813F818C819D8186
:101720002817390764F4E881F9810193F983E88384
:1017300006C0E885F985802F0995892B31F48E81C3
:101740009F8101969F838E8302C00FEF1FEFC80118
:10175000DF91CF911F910F910895FA01AA272830A8
:1017600051F1203181F1E8946F936E7F6E5F7F4F6E
:101770008F4F9F4FAF4FB1E03ED0B4E03CD0670FEA
:10178000781F891F9A1FA11D680F791F8A1F911D3D
:10179000A11D6A0F711D811D911DA11D20D009F48D
:1017A00068943F912AE0269F11243019305D3193CF
:1017B000DEF6CF010895462F4770405D4193B3E0B8
:1017C0000FD0C9F7F6CF462F4F70405D4A3318F05F
:1017D000495D31FD4052419302D0A9F7EACFB4E010
:1017E000A6959795879577956795BA95C9F70097C8
:1017F0006105710508959B01AC010A2E0694579569
:10180000479537952795BA95C9F7620F731F841FBF
:10181000951FA01D08952F923F924F925F926F9255
:101820007F928F929F92AF92BF92CF92DF92EF9270
:10183000FF920F931F93CF93DF93CDB7DEB7CA1BF1
:10184000DB0B0FB6F894DEBF0FBECDBF09942A881C
:10185000398848885F846E847D848C849B84AA84C4
:10186000B984C884DF80EE80FD800C811B81AA8151
:10187000B981CE0FD11D0FB6F894DEBF0FBECDBF1C
:08188000ED010895F894FFCF7B
:10188800242573004750524D4300256325630025E6
:10189800780025732F25732F323025730A25733A64
:1018A80025733A257320555443004552524F520030
:1018B8002563202573B0202573270A256320257307
:1018C800B020257327004572726F72004865616405
:1018D800696E67202573B00A40202573206B6E6FF0
:1018E80074730025730A257300417474656D7074F0
:1018F800696E6720746F0A41637175697265204467
:0A1908006174610020008E010000F0
:00000001FF
