:100000000C94E5000C9402010C9402010C94020182
:100010000C9402010C9402010C9402010C94020154
:100020000C9402010C9402010C9402010C94020144
:100030000C9402010C9402010C9402010C94020134
:100040000C9402010C9402010C9402010C94020124
:100050000C9402010C9402010C9402010C94020114
:100060000C9402010C9402019C01D302D302D3022E
:10007000D302D302D302D302D302D302D302D302D8
:10008000D302D302D302D302D302D302D302D302C8
:10009000D302D3029F01A201A501A801AB01AE01C9
:1000A000B101B401B701BA01BD01C001C301C6016C
:1000B000C901CC01CF01D201D501D801DB01DE019C
:1000C000E101E401E701EA01ED01F001F301F601CC
:1000D000F901FC01FF010202050208020B020E02F7
:1000E0001102140217021A021D0220022302260224
:1000F00029022C022F023202350238023B023E0254
:100100004102440247024A024D0250025302560283
:1001100059025C025F026202650268026B026E02B3
:100120007102740277027A027D02800283028602E3
:1001300089028C028F029202950298029B029E0213
:10014000A102A402A702AA02AD02B002B302B60243
:10015000B902D302D302D302D302D302D302D30211
:10016000D302D302D302D302D302D302D302D302E7
:10017000D302D302D302D302D302D302D302D302D7
:10018000D302D302D302D302D302D302D302D302C7
:10019000D302D302D302D302D302D302D302D302B7
:1001A000D302D302D302D302D302D302D302BC02BE
:1001B000D302D302BF02C202D302D302C502C802D5
:1001C000D302CB02CE02D302D10211241FBECFEF45
:1001D000D8E0DEBFCDBF11E0A0E0B1E0E0EAFFE093
:1001E00002C005900D92AC32B107D9F711E0ACE234
:1001F000B1E001C01D92A033B107E1F70E94F00207
:100200000C94CE070C940000DC0110928500109233
:100210008400809184009091850024E096958795D4
:100220002A95E1F78F559140CCF420E030E09AE038
:100230002F30310521F41F969C931F970AC080919F
:10024000C00087FFFCCF8091C600FD01E20FF31FC5
:1002500080832F5F3F4F2132310551F791961C92D9
:1002600080E090E008950F931F93CF93DF938C016C
:1002700080E185B92EE431E0C9010197F1F715B8A5
:10028000C9010197F1F788E185B9C9010197F1F733
:1002900015B8C9010197F1F780E797E10197F1F7E8
:1002A000CA010197099720F58DB79EB708970FB639
:1002B000F8949EBF0FBE8DBFEDB7FEB73196ADB7B8
:1002C000BEB712961C930E93119780E091E0938332
:1002D000828375836483578346830E94F6048DB7B7
:1002E0009EB708960FB6F8949EBF0FBE8DBF03C091
:1002F000C8010E94EF04E80109900020E9F7219766
:10030000C01BD10B40E050E030E020E06EE471E033
:100310005CC1F801E40FF51F808190E0FC013A9781
:10032000E13BF10508F03FC1EC5CFF4FEE0FFF1F12
:100330000590F491E02D099435E121E134C134E3D5
:1003400020E331C134E328E32EC134E324E32BC19D
:1003500034E32CE328C134E322E325C134E32AE368
:1003600022C134E326E31FC134E32EE31CC134E38E
:1003700021E319C134E329E316C134E325E313C1B2
:1003800034E32DE310C134E323E30DC134E32BE365
:100390000AC134E327E307C134E32FE304C13CE39C
:1003A00020E301C13CE328E3FEC03CE324E3FBC0BF
:1003B0003CE32CE3F8C03CE322E3F5C03CE32AE352
:1003C000F2C03CE326E3EFC03CE32EE3ECC03CE3A9
:1003D00021E3E9C03CE329E3E6C03CE325E3E3C0D5
:1003E0003CE32DE3E0C03CE323E3DDC03CE32BE34F
:1003F000DAC03CE327E3D7C03CE32FE3D4C032E3C9
:1004000020E3D1C032E328E3CEC032E324E3CBC003
:1004100032E32CE3C8C032E322E3C5C032E32AE36F
:10042000C2C032E326E3BFC032E32EE3BCC032E3F6
:1004300021E3B9C032E329E3B6C032E325E3B3C018
:1004400032E32DE3B0C032E323E3ADC032E32BE36C
:10045000AAC032E327E3A7C032E32FE3A4C03AE304
:1004600020E3A1C03AE328E39EC03AE324E39BC023
:100470003AE32CE398C03AE322E395C03AE32AE357
:1004800092C03AE326E38FC03AE32EE38CC03AE30E
:1004900021E389C03AE329E386C03AE325E383C038
:1004A0003AE32DE380C03AE323E37DC03AE32BE354
:1004B0007AC03AE327E377C03AE32FE374C036E328
:1004C00020E371C036E328E36EC036E324E36BC05B
:1004D00036E32CE368C036E322E365C036E32AE363
:1004E00062C036E326E35FC036E32EE35CC036E34A
:1004F00021E359C036E329E356C036E325E353C070
:1005000036E32DE350C036E323E34DC036E32BE35F
:100510004AC036E327E347C036E32FE344C03EE357
:1005200020E341C03EE328E33EC03EE324E33BC07A
:100530003EE32CE338C03EE322E335C03EE32AE34A
:1005400032C03EE326E32FC03EE32EE32CC03EE361
:1005500021E329C03EE329E326C03EE325E323C08F
:100560003EE32DE320C03EE323E31DC03EE32BE347
:100570001AC03EE327E317C035E32BE314C03DE385
:1005800020E311C03DE328E30EC03DE322E30BC0AE
:100590003DE32AE308C03DE32EE305C03DE321E34C
:1005A00002C03DE325E335B9CB010197F1F715B85A
:1005B000CB010197F1F725B9CB010197F1F715B8F8
:1005C000CB010197F1F74F5F5F4F4C175D070CF4BC
:1005D000A0CE80E090E0DF91CF911F910F91089520
:1005E000CF92DF92EF92FF920F931F93CF93DF93FF
:1005F0008FE384B915B88AE892E028EC30E0F9017D
:100600003197F1F70197D9F720E030E040E060E161
:10061000D62E6EE471E058ECE52EF12C0CE211E0E0
:10062000C0E2DEE458E1A0E7B7E12630310509F485
:10063000CDC02730310554F4253031050CF0C8C049
:1006400023303105ECF437FFBFC032C0293031050B
:1006500009F4BCC02A30310544F42730310509F4CF
:10066000B7C02830310521F50DC02B30310509F414
:10067000ADC02B303105C4F02C303105C9F416C0A3
:1006800044E119C0D5B8CB010197F1F715B8CB01FA
:100690000197F1F755B9CB010197F1F715B8CB01E7
:1006A0000197F1F7CD0113C042E105C043E103C05A
:1006B00028303105F1F045B9CB010197F1F715B8B4
:1006C000CB010197F1F72115310521F4CE010197F6
:1006D000F1F70FC02130310511F4C801F8CF2A30ED
:1006E000310539F484EF91E0F7013197F1F7019783
:1006F000D9F72F5F3F4F2D30310509F096CF88ECA9
:1007000090E00197F1F71092C50087E68093C4004E
:100710008091C0008D7F8093C00088E18093C100EC
:1007200086E08093C2008091810083608093810085
:1007300082E290E00E94EA037C0182E290E00E9463
:10074000EA038C01C7016AE071E04AE050E00E94D0
:100750003301C0E0D0E038ECC32ED12CCF30D1052E
:1007600009F5EAE1F1E007C08091C00085FFFCCF08
:1007700081918093C60081E0E532F807A9F7C801AE
:100780000E940401C701B8014AE050E00E94330111
:1007900080E29EE4F6013197F1F70197D9F7C0E0C6
:1007A000D0E010C0C8010E940401C701B8014AE0AE
:1007B00050E00E94330188E893E1F6013197F1F7A8
:1007C0000197D9F72196CACF4CE175CF40E173CF9D
:1007D00041E171CFCF93DF93BC018230910510F4DA
:1007E00062E070E0A0912E01B0912F01ED01E0E0F8
:1007F000F0E040E050E021C088819981861797079A
:1008000069F48A819B81309719F09383828304C0B5
:1008100090932F0180932E01FE0134C06817790751
:1008200038F44115510519F08417950708F4AC0107
:10083000FE018A819B819C01E9012097E9F641151F
:100840005105A9F1CA01861B970B049708F4BA0158
:10085000E0E0F0E02AC08D919C91119784179507F4
:10086000F9F46417750781F412968D919C91139792
:10087000309719F09383828304C090932F01809363
:100880002E01FD0132964FC0CA01861B970BFD0158
:10089000E80FF91F6193719302978D939C9343C066
:1008A000FD01828193819C01D9011097A1F680916D
:1008B0002C0190912D01892B41F480912801909178
:1008C000290190932D0180932C0140912A01509190
:1008D0002B014115510541F44DB75EB780912601BA
:1008E00090912701481B590B20912C0130912D012B
:1008F00024173507B0F4CA01821B930B861797079C
:1009000080F0AB014E5F5F4F8417950750F0420FA8
:10091000531F50932D0140932C01F9016193719362
:1009200002C0E0E0F0E0CF01DF91CF910895CF93D6
:10093000DF93009709F450C0EC0122971B821A82C2
:10094000A0912E01B0912F01109709F140E050E0E5
:10095000AC17BD0708F1BB83AA83FE012191319139
:10096000E20FF31FAE17BF0779F48D919C91119799
:10097000280F391F2E5F3F4F3983288312968D91A0
:100980009C9113979B838A834115510571F4D093F1
:100990002F01C0932E0120C012968D919C91139728
:1009A000AD01009711F0DC01D3CFFA01D383C283EC
:1009B00021913191E20FF31FCE17DF0769F488818F
:1009C0009981280F391F2E5F3F4FFA013183208311
:1009D0008A819B8193838283DF91CF910895FB016C
:1009E000DC0101900D920020E1F70895AEE0B0E047
:1009F000ECEFF4E00C94A5070D891E8986E08C834A
:100A00001A8309838FEF9FE79E838D839E01275E64
:100A10003F4FCE0101966F89788DA9010E941A057A
:100A20002F813885020F131FF80110822E96E4E003
:100A30000C94C107ABE0B0E0E0E2F5E00C9497075E
:100A40003C012B015A01FC0117821682838181FD32
:100A500003C06FEF7FEFC6C19AE0892E1E01089494
:100A6000211C311CF3012381F20123FD859123FF19
:100A700081912F01882309F4B2C1853239F423FD15
:100A8000859123FF81912F01853229F490E0B301F4
:100A90000E940D07E7CF982FFF24EE249924FFE151
:100AA000FF15D0F09B3269F09C3228F4903259F057
:100AB000933291F40EC09D3249F0903369F441E0D5
:100AC00024C052E0F52A84E0F82A28C098E0F92AE8
:100AD00025C0E0E1FE2A22C0F7FC29C0892F8053FF
:100AE0008A3070F4F6FE05C0989C902C1124980E64
:100AF00015C0E89CE02C1124E80EF0E2FF2A0EC09D
:100B00009E3229F4F6FC6BC140E4F42A07C09C36FF
:100B100019F450E8F52A02C0983649F4F20123FD91
:100B2000959123FF91912F01992309F0B8CF892F37
:100B30008554833018F08052833038F444E050E01C
:100B4000A40EB51E5FE359830FC0933631F093377F
:100B500079F0933509F056C020C0F5018081898372
:100B600042E050E0A40EB51E610101E010E012C0A9
:100B7000F501C080D180F6FC03C06FEF7FEF02C0AB
:100B8000692D70E042E050E0A40EB51EC6010E943F
:100B900002078C015FE7F52214C0F501C080D18007
:100BA000F6FC03C06FEF7FEF02C0692D70E042E0FA
:100BB00050E0A40EB51EC6010E94F7068C0150E855
:100BC000F52AF3FE07C01AC080E290E0B3010E944C
:100BD0000D07EA948E2D90E008171907A8F30EC0B0
:100BE000F601F7FC8591F7FE81916F0190E0B3016A
:100BF0000E940D07E110EA94015010400115110503
:100C000079F7EAC0943611F0993669F5F7FE08C015
:100C1000F501208131814281538184E090E00AC056
:100C2000F501808191819C01442737FD4095542F27
:100C300082E090E0A80EB91E9FE6F92257FF09C096
:100C400050954095309521953F4F4F4F5F4FE0E8CD
:100C5000FE2ACA01B901A1012AE030E00E94390749
:100C6000D82ED21840C0953729F41F2D1F7E2AE0B8
:100C700030E01DC01F2D197F9F3661F0903720F4A2
:100C8000983509F0ACC00FC0903739F0983709F0AB
:100C9000A6C004C028E030E00AC0106114FD146052
:100CA00020E130E004C014FD166020E132E017FFBF
:100CB00008C0F501608171818281938144E050E038
:100CC00008C0F50180819181BC0180E090E042E0A4
:100CD00050E0A40EB51EA1010E943907D82ED218EB
:100CE0008FE7F82EF122F6FE0BC05EEFF522D91445
:100CF00038F4F4FE07C0F2FC05C08FEEF82202C003
:100D00001D2D01C0192DF4FE0DC0FE01ED0DF11DCC
:100D10008081803319F499EEF92208C01F5FF2FE3A
:100D200005C003C08F2D867809F01F5F0F2DF3FCDF
:100D300014C0F0FE0FC01E1510F09D2C0BC09D2C92
:100D40009E0C911A1E2D06C080E290E0B3010E9415
:100D50000D071F5F1E15C0F304C01E1510F4E11A25
:100D600001C0EE2404FF0FC080E390E0B3010E94B5
:100D70000D0702FF1DC001FD03C088E790E00EC013
:100D800088E590E00BC0802F867891F001FF02C0CB
:100D90008BE201C080E2F7FC8DE290E0B3010E949B
:100DA0000D0706C080E390E0B3010E940D079A94FE
:100DB000D914C0F3DA94F101ED0DF11D808190E0BA
:100DC000B3010E940D07DD20A9F706C080E290E084
:100DD000B3010E940D07EA94EE20C1F743CEF30160
:100DE00066817781CB012B96E2E10C94B307FC017D
:100DF0000590615070400110D8F7809590958E0F46
:100E00009F1F0895FC016150704001900110D8F7B8
:100E1000809590958E0F9F1F08950F931F93CF93EA
:100E2000DF938C01EB018B8181FF1BC082FF0DC022
:100E30002E813F818C819D812817390764F4E881D8
:100E4000F9810193F983E88306C0E885F985802F4D
:100E50000995892B31F48E819F8101969F838E8322
:100E600002C00FEF1FEFC801DF91CF911F910F91CB
:100E70000895FA01AA27283051F1203181F1E89430
:100E80006F936E7F6E5F7F4F8F4F9F4FAF4FB1E07D
:100E90003ED0B4E03CD0670F781F891F9A1FA11D78
:100EA000680F791F8A1F911DA11D6A0F711D811D79
:100EB000911DA11D20D009F468943F912AE0269F3E
:100EC00011243019305D3193DEF6CF010895462F9D
:100ED0004770405D4193B3E00FD0C9F7F6CF462F7E
:100EE0004F70405D4A3318F0495D31FD40524193E7
:100EF00002D0A9F7EACFB4E0A695979587957795A4
:100F00006795BA95C9F700976105710508959B012A
:100F1000AC010A2E06945795479537952795BA95B3
:100F2000C9F7620F731F841F951FA01D08952F928C
:100F30003F924F925F926F927F928F929F92AF9269
:100F4000BF92CF92DF92EF92FF920F931F93CF93B6
:100F5000DF93CDB7DEB7CA1BDB0B0FB6F894DEBF4D
:100F60000FBECDBF09942A88398848885F846E8473
:100F70007D848C849B84AA84B984C884DF80EE80BD
:100F8000FD800C811B81AA81B981CE0FD11D0FB6C6
:100F9000F894DEBF0FBECDBFED010895F894FFCFEA
:100FA00025732569206F66203900496E697469616F
:100FB0006C697A696E672E2E2E0024504D544B308A
:0C0FC00030302A333200200030010000E5
:00000001FF
