:100000000C94E5000C9402010C9402010C94020182
:100010000C9402010C9402010C9402010C94020154
:100020000C9402010C9402010C9402010C94020144
:100030000C9402010C9402010C9402010C94020134
:100040000C9402010C9402010C9402010C94020124
:100050000C9402010C9402010C9402010C94020114
:100060000C9402010C94020161049805980598050E
:100070009805980598059805980598059805980598
:100080009805980598059805980598059805980588
:1000900098059805640467046A046D047004730489
:1000A000760479047C047F048204850488048B042C
:1000B0008E049104940497049A049D04A004A3045C
:1000C000A604A904AC04AF04B204B504B804BB048C
:1000D000BE04C104C404C704CA04CD04D004D304BC
:1000E000D604D904DC04DF04E204E504E804EB04EC
:1000F000EE04F104F404F704FA04FD04000503051A
:10010000060509050C050F051205150518051B0543
:100110001E052105240527052A052D053005330573
:10012000360539053C053F054205450548054B05A3
:100130004E055105540557055A055D0560056305D3
:10014000660569056C056F057205750578057B0503
:100150007E059805980598059805980598059805D1
:1001600098059805980598059805980598059805A7
:100170009805980598059805980598059805980597
:100180009805980598059805980598059805980587
:100190009805980598059805980598059805980577
:1001A000980598059805980598059805980581057E
:1001B0009805980584058705980598058A058D0595
:1001C0009805900593059805960511241FBECFEF5D
:1001D000D8E0DEBFCDBF12E0A0E0B1E0E4EDF7E291
:1001E00002C005900D92A836B107D9F712E0A8E633
:1001F000B2E001C01D92AC36B107E1F70E94B5052F
:100200000C94E8130C940000DC011092850010920D
:100210008400809184009091850054E096958795A4
:100220005A95E1F720E030E019C08091C00087FFC7
:10023000FCCF8091C600FD01E20FF31F80832F5F8A
:100240003F4F809184009091850041E02330340736
:1002500041F044E0969587954A95E1F78F55914096
:1002600024F3AD5FBE4F1C9280E090E00895AC0196
:10027000DC010D900020E9F71197A81BB90B20E0D5
:1002800030E00CC0FA01E20FF31FE0818091C00062
:1002900085FFFCCFE093C6002F5F3F4F2A173B0737
:1002A00088F380E090E008950F931F93CF93DF933E
:1002B000182F092FFB0120E030E004C090E0282730
:1002C0003927319680818823C9F700D000D000D02B
:1002D000EDB7FEB73196ADB7BEB711961C9301834B
:1002E00080E091E093838283358324830E94101100
:1002F000212F302FC901EC018DB79EB706960FB69E
:10030000F8949EBF0FBE8DBF04C090E00E94CF1036
:10031000899388818823C9F780E090E0DF91CF91AD
:100320001F910F9108958F929F92AF92BF92CF929B
:10033000DF92EF92FF920F931F93CF93DF935C01B5
:100340006B01142F81E190E00E94CA0FF82EE92E74
:1003500081E190E00E94CA0F982E892E84E0C81691
:10036000D10409F4C7C095E0C916D104C4F4A1E0D2
:10037000CA16D10409F448C0B2E0CB16D10424F463
:10038000C114D10409F19DC182E0C816D10409F459
:100390005BC093E0C916D10409F093C18BC0A6E0FD
:1003A000CA16D10409F4FCC0B6E0CB16D1040CF493
:1003B000D7C087E0C816D10409F426C198E0C91651
:1003C000D10409F07EC15DC1103309F0EBC1ADB7B6
:1003D000BEB71A970FB6F894BEBF0FBEADBFEDB74C
:1003E000FEB731961196FC92E18283E091E093830F
:1003F00082838CE091E09583848381E191E097830F
:10040000868385E191E0EBC0103309F0CBC1ADB735
:10041000BEB71A970FB6F894BEBF0FBEADBFEDB70B
:10042000FEB731961196FC92E18283E091E09383CE
:1004300082838CE091E09583848381E191E09783CE
:10044000868389E191E0CBC02CE031E01133B9F42F
:10045000ADB7BEB718970FB6F894BEBF0FBEADBF0D
:10046000EDB7FEB731961196FC92E1828DE191E0F5
:10047000938382833583248383E291E0DFC0ADB729
:10048000BEB71A970FB6F894BEBF0FBEADBFEDB79B
:10049000FEB731961196FC92E18283E091E093835E
:1004A00082833583248381E191E09783868387E289
:1004B00091E095C0103309F075C1ADB7BEB71A977A
:1004C0000FB6F894BEBF0FBEADBFEDB7FEB7319605
:1004D0001196FC92E18283E091E0938382838CE029
:1004E00091E09583848381E191E0978386838BE219
:1004F00091E075C02CE031E01133B9F4ADB7BEB76F
:1005000018970FB6F894BEBF0FBEADBFEDB7FEB7DC
:1005100031961196FC92E1828DE191E09383828382
:10052000358324838FE291E089C0ADB7BEB71A97B7
:100530000FB6F894BEBF0FBEADBFEDB7FEB7319694
:100540001196FC92E18283E091E09383828335836C
:10055000248381E191E09783868383E391E03FC028
:10056000103309F01FC1ADB7BEB71A970FB6F89494
:10057000BEBF0FBEADBFEDB7FEB731961196FC9270
:10058000E18283E091E0938382838CE091E0958324
:10059000848381E191E09783868387E391E01FC0A4
:1005A000103309F0FFC0ADB7BEB71A970FB6F89475
:1005B000BEBF0FBEADBFEDB7FEB731961196FC9230
:1005C000E18283E091E0938382838CE091E09583E4
:1005D000848381E191E0978386838BE391E0918727
:1005E00080870E9410118DB79EB70A960FB6F894B7
:1005F0009EBF0FBE8DBFC5016F2D7E2D0E94F610D0
:10060000009709F0F2C0D9C02CE031E01133F1F4C9
:10061000ADB7BEB718970FB6F894BEBF0FBEADBF4B
:10062000EDB7FEB731961196FC92E1828DE191E033
:1006300093838283358324838FE391E0978386833A
:100640000E9410118DB79EB70896D0CFADB7BEB738
:100650001A970FB6F894BEBF0FBEADBFEDB7FEB789
:1006600031961196FC92E18283E091E0938382833C
:100670003583248381E191E09783868383E491E04D
:10068000AECF103309F08EC0ADB7BEB71A970FB614
:10069000F894BEBF0FBEADBFEDB7FEB73196119651
:1006A000FC92E18283E091E0938382838CE091E08D
:1006B0009583848381E191E09783868387E491E049
:1006C0008ECF00D000D000D0EDB7FEB73196ADB7D9
:1006D000BEB71196FC92E1828BE491E09383828312
:1006E0008FE491E0958384830E9410118DB79EB7AB
:1006F00006967CCFB501600F711F892D982DAE0134
:100700000E94E710892D982D6F2D7E2D0E94D71005
:100710000097B9F00F5F1F4FD5010D900020E9F74A
:10072000CD01A92DB82DED0109900020E9F7219701
:10073000CA1BDB0B8A199B098C1B9D0B0817190719
:10074000C8F28F2D9E2D0E947710892D982D0E9422
:100750007710B9E0CB16D104D4F1D5010D9000206B
:10076000E9F7AA19BB091297F501E00FF11FC801BB
:1007700040E050E010C0208131812C3231F4413012
:10078000510569F041E050E004C02D3011F43A30D9
:10079000E1F0019631968A179B0768F316C0313451
:1007A000B1F013C08F2D9E2D0E947710892D982DAA
:1007B0000E94771000E010E00AC08F2D9E2D0E944D
:1007C0007710892D982D0E9477100FEF1FEFC80129
:1007D000DF91CF911F910F91FF90EF90DF90CF901D
:1007E000BF90AF909F908F90089500E010E094CF5D
:1007F0000F931F93CF93DF938C0180E185B92EE493
:1008000031E0C9010197F1F715B8C9010197F1F776
:1008100088E185B9C9010197F1F715B8C9010197B8
:10082000F1F780E797E10197F1F7CA01019709977E
:1008300020F58DB79EB708970FB6F8949EBF0FBEF0
:100840008DBFEDB7FEB73196ADB7BEB712961C930C
:100850000E93119785E591E093838283758364837A
:10086000578346830E9410118DB79EB708960FB626
:10087000F8949EBF0FBE8DBF03C0C8010E94E01058
:10088000E80109900020E9F72197C01BD10B40E057
:1008900050E030E020E06EE471E05CC1F801E40F6C
:1008A000F51F808190E0FC013A97E13BF10508F0EB
:1008B0003FC1EC5CFF4FEE0FFF1F0590F491E02D60
:1008C000099435E121E134C134E320E331C134E35B
:1008D00028E32EC134E324E32BC134E32CE328C105
:1008E00034E322E325C134E32AE322C134E326E3DF
:1008F0001FC134E32EE31CC134E321E319C134E307
:1009000029E316C134E325E313C134E32DE310C119
:1009100034E323E30DC134E32BE30AC134E327E3DB
:1009200007C134E32FE304C13CE320E301C13CE30E
:1009300028E3FEC03CE324E3FBC03CE32CE3F8C027
:100940003CE322E3F5C03CE32AE3F2C03CE326E3C8
:10095000EFC03CE32EE3ECC03CE321E3E9C03CE321
:1009600029E3E6C03CE325E3E3C03CE32DE3E0C03C
:100970003CE323E3DDC03CE32BE3DAC03CE327E3C5
:10098000D7C03CE32FE3D4C032E320E3D1C032E34D
:1009900028E3CEC032E324E3CBC032E32CE3C8C06B
:1009A00032E322E3C5C032E32AE3C2C032E326E3E6
:1009B000BFC032E32EE3BCC032E321E3B9C032E36F
:1009C00029E3B6C032E325E3B3C032E32DE3B0C080
:1009D00032E323E3ADC032E32BE3AAC032E327E3E3
:1009E000A7C032E32FE3A4C03AE320E3A1C03AE377
:1009F00028E39EC03AE324E39BC03AE32CE398C08B
:100A00003AE322E395C03AE32AE392C03AE326E3CD
:100A10008FC03AE32EE38CC03AE321E389C03AE386
:100A200029E386C03AE325E383C03AE32DE380C09F
:100A30003AE323E37DC03AE32BE37AC03AE327E3CA
:100A400077C03AE32FE374C036E320E371C036E3A6
:100A500028E36EC036E324E36BC036E32CE368C0C2
:100A600036E322E365C036E32AE362C036E326E3D9
:100A70005FC036E32EE35CC036E321E359C036E3C2
:100A800029E356C036E325E353C036E32DE350C0D7
:100A900036E323E34DC036E32BE34AC036E327E3D6
:100AA00047C036E32FE344C03EE320E341C03EE3CA
:100AB00028E33EC03EE324E33BC03EE32CE338C0E2
:100AC0003EE322E335C03EE32AE332C03EE326E3C1
:100AD0002FC03EE32EE32CC03EE321E329C03EE3DA
:100AE00029E326C03EE325E323C03EE32DE320C0F7
:100AF0003EE323E31DC03EE32BE31AC03EE327E3BE
:100B000017C035E32BE314C03DE320E311C03DE300
:100B100028E30EC03DE322E30BC03DE32AE308C017
:100B20003DE32EE305C03DE321E302C03DE325E3C1
:100B300035B9CB010197F1F715B8CB010197F1F762
:100B400025B9CB010197F1F715B8CB010197F1F762
:100B50004F5F5F4F4C175D070CF4A0CE80E090E034
:100B6000DF91CF911F910F9108952F923F924F9255
:100B70005F926F927F928F929F92AF92BF92CF922D
:100B8000DF92EF92FF920F931F93DF93CF93CDB736
:100B9000DEB76E970FB6F894DEBF0FBECDBF8FE302
:100BA00084B915B88AE892E028EC30E0F901319771
:100BB000F1F70197D9F720E030E040E010E1F12EA5
:100BC0006EE471E008EC10E0BCE2CB2EB1E0DB2E6D
:100BD000A0E2BEE458E12630310511F40C94BC0FBC
:100BE000273031056CF42530310514F00C94BF0F1B
:100BF0002330310514F537FD02C00C94B90F32C013
:100C00002930310511F40C94BC0F2A3031054CF415
:100C10002730310511F40C94BF0F2830310511F540
:100C20000EC02B30310511F40C94BC0F2B30310564
:100C3000ACF02C303105B1F413C044E116C0F5B866
:100C4000CB010197F1F715B8CB010197F1F755B931
:100C5000CB010197F1F715B8CB0113C042E105C0F4
:100C600043E103C028303105F1F045B9CB010197CC
:100C7000F1F715B8CB010197F1F72115310521F4F2
:100C8000CD010197F1F70FC02130310511F4C601F4
:100C9000F8CF2A30310539F484EF91E0F80131972B
:100CA000F1F70197D9F72F5F3F4F2D30310509F04C
:100CB00092CF88EC90E00197F1F71092C50087E69B
:100CC0008093C4008091C0008D7F8093C00088E134
:100CD0008093C10086E08093C20080918100836090
:100CE0008093810084E091E00E94CA0F3C0184E07F
:100CF00091E00E94CA0F582EA92E82E290E00E9435
:100D0000CA0F8887998782E290E00E94CA0F8A877B
:100D10009B8782E290E00E94CA0F8C879D8782E2C7
:100D200090E00E94CA0F8E879F87888599856FE51E
:100D300071E041E050E00E94F803882499241F826A
:100D40001E821E8E1D8EA1E3BA2EFCE0CF2EF1E096
:100D5000DF2E22E08216910459F034E083169104CC
:100D600039F047E08416910419F050E35B8302C028
:100D700081E38B83AE81BF81AB2B09F0E3C2ED8DA4
:100D8000FE8D309709F4E2C03197D1F42DB73EB70C
:100D9000285030400FB6F8943EBF0FBE2DBFEDB7C0
:100DA000FEB73196ADB7BEB711965C92A18226E729
:100DB00031E033832283D582C4824BE751E04CC0BB
:100DC000AD8DBE8D1297B9F4EDB7FEB738970FB65B
:100DD000F894FEBF0FBEEDBF3196ADB7BEB711960A
:100DE0005C92A18226E731E033832283D582C482DC
:100DF0004FE751E031C0AD8DBE8D1397B9F4EDB71B
:100E0000FEB738970FB6F894FEBF0FBEEDBF319610
:100E1000ADB7BEB711965C92A18226E731E033836D
:100E20002283D582C48243E851E016C0ADB7BEB775
:100E300018970FB6F894BEBF0FBEADBFEDB7FEB7A3
:100E4000319611965C92A18226E731E033832283AA
:100E5000D582C48247E851E0578346830E9410112F
:100E60008DB79EB708960FB6F8949EBF0FBE8DBF84
:100E700084E090E00E94CA0FF82EE92E652D7A2DAD
:100E80000E945401E52DFA2DDF010D900020E9F7B5
:100E9000CD0101978E1B9F0BAF2DBE2DFD01019043
:100EA0000020E9F73197EA1BFB0B8E0F9F1F059679
:100EB0000E94CA0F182F092FEDB7FEB73C970FB647
:100EC000F894FEBF0FBEEDBF3196ADB7BEB7119619
:100ED0008C9391832BE831E0338322835482A58263
:100EE000F682E7828DE090E0918780878AE090E04B
:100EF000938782870E9410114DB75EB7445F5F4FA2
:100F00000FB6F8945EBF0FBE4DBF852D9A2D612F91
:100F1000702F0E94E010812F902F0E9477108F2D4C
:100F20009E2D0E947710852D9A2D0E9437018D8D60
:100F30009E8D049711F41E8E1D8E80E197E228ECA1
:100F400030E0F9013197F1F70197D9F794E089166C
:100F5000910409F4BFC0A5E08A169104C4F4B1E07D
:100F60008B16910409F443C0E2E08E16910424F438
:100F70008114910409F18BC1F2E08F16910409F4F8
:100F800055C023E08216910409F081C184C036E087
:100F90008316910409F4FEC046E0841691040CF413
:100FA000DAC057E08516910409F40FC188E088166D
:100FB000910409F06CC141C190E3B91609F0C2C1B6
:100FC000ADB7BEB718970FB6F894BEBF0FBEADBF92
:100FD000EDB7FEB7319611965C92A18226E731E01B
:100FE00033832283D582C48245E151E007C190E377
:100FF000B91609F0A7C1ADB7BEB71A970FB6F894E6
:10100000BEBF0FBEADBFEDB7FEB7319611965C9275
:10101000A18226E931E033832283D582C48249E16B
:1010200051E0578346838EE991E088C0B1E3BB1657
:10103000B9F4EDB7FEB738970FB6F894FEBF0FBE00
:10104000EDBF3196ADB7BEB711965C92A18226E78F
:1010500031E033832283D582C48243EA51E0CEC09B
:10106000ADB7BEB71A970FB6F894BEBF0FBEADBFEF
:10107000EDB7FEB7319611965C92A18226E931E078
:1010800033832283D582C48247E251E0578346836B
:1010900087EA91E053C0B0E3BB1609F053C1EDB746
:1010A000FEB73A970FB6F894FEBF0FBEEDBF31966C
:1010B000ADB7BEB711965C92A18226E931E03383C9
:1010C0002283D582C4824BE251E0578346838DEC64
:1010D00091E034C0B1E3BB16B9F4EDB7FEB7389771
:1010E0000FB6F894FEBF0FBEEDBF3196ADB7BEB7D9
:1010F00011965C92A18226E731E033832283D58268
:10110000C48241ED51E07AC0ADB7BEB71A970FB6B1
:10111000F894BEBF0FBEADBFEDB7FEB731961196C6
:101120005C92A18226E931E033832283D582C48296
:1011300043E351E05783468385ED91E091878087B3
:101140000E941011ADB7BEB71A960FB6F894BEBF85
:101150000FBEADBF9CC0B0E3BB1609F0F3C0EDB746
:10116000FEB73A970FB6F894FEBF0FBEEDBF3196AB
:10117000ADB7BEB711965C92A18229ED31E0338301
:101180002283D582C48247E351E05783468380E3BC
:1011900090E071C090E3B91609F0D4C0ADB7BEB706
:1011A0001A970FB6F894BEBF0FBEADBFEDB7FEB72E
:1011B000319611965C92A18229ED31E0338322832E
:1011C000D582C4824BE351E052C091E3B916F1F4E9
:1011D000ADB7BEB718970FB6F894BEBF0FBEADBF80
:1011E000EDB7FEB7319611965C92A18226E731E009
:1011F00033832283D582C48241EE51E057834683F4
:101200000E9410118DB79EB708963CC0ADB7BEB70F
:101210001A970FB6F894BEBF0FBEADBFEDB7FEB7BD
:10122000319611965C92A18229ED31E033832283BD
:10123000D582C48243E451E01AC090E3B91609F0A4
:1012400081C0ADB7BEB71A970FB6F894BEBF0FBE38
:10125000ADBFEDB7FEB7319611965C92A18229ED34
:1012600031E033832283D582C48247E451E057833F
:10127000468381E390E0918780870E9410118DB7AB
:101280009EB70A960FB6F8949EBF0FBE8DBF84E03E
:1012900090E00E94CA0FF82EE92E652D7A2D0E944B
:1012A0005401E52DFA2DDF010D900020E9F7CD0165
:1012B00001978E1B9F0BAF2DBE2DFD0101900020CD
:1012C000E9F73197EA1BFB0B8E0F9F1F05960E94D3
:1012D000CA0F182F092FEDB7FEB73C970FB6F89439
:1012E000FEBF0FBEEDBF3196ADB7BEB711968C9362
:1012F00091832BE831E0338322835482A582F682E6
:10130000E7828DE090E0918780878AE090E0938784
:1013100082870E9410114DB75EB7445F5F4F0FB6D2
:10132000F8945EBF0FBE4DBF852D9A2D612F702F93
:101330000E94E010812F902F0E9477108F2D9E2DFC
:101340000E947710852D9A2D0E943701C3010E94BB
:101350000401C301B4014B2D0E9493019D838C8332
:1013600097FDB0C28FE290E00E94CA0FF82EE92EDE
:1013700054E08516910409F4DBC085E088169104D9
:10138000C4F491E08916910409F449C0A2E08A16D8
:10139000910424F48114910409F1B5C1B2E08B16D3
:1013A000910409F45DC0E3E08E16910409F0ABC12D
:1013B0009EC0F6E08F16910409F418C126E082164B
:1013C00091040CF4F2C037E08316910409F42FC1A4
:1013D00048E08416910409F096C168C150E3B5163F
:1013E00009F0BEC58DB79EB70A970FB6F8949EBF99
:1013F0000FBE8DBFEDB7FEB73196ADB7BEB7119634
:10140000FC92E18285EE91E093838283D582C4824F
:1014100081E191E09783868325E131E067C150E364
:10142000B51609F09DC58DB79EB70A970FB6F8940B
:101430009EBF0FBE8DBFEDB7FEB73196ADB7BEB73D
:101440001196FC92E18285EE91E093838283D582AE
:10145000C48281E191E09783868329E131E046C12E
:1014600051E3B51649F58DB79EB70A970FB6F894B4
:101470009EBF0FBE8DBFEDB7FEB73196ADB7BEB7FD
:101480001196FC92E18226E931E033832283D582F2
:10149000C48283E291E09783868347EA51E05187D3
:1014A00040870E9410118DB79EB70A960FB6F89428
:1014B0009EBF0FBE8DBF27C1ADB7BEB71A970FB67F
:1014C000F894BEBF0FBEADBFEDB7FEB73196119613
:1014D000FC92E18285EE91E093838283D582C4827F
:1014E00081E191E09783868327E231E0FFC050E3FA
:1014F000B51609F035C58DB79EB70A970FB6F894A3
:101500009EBF0FBE8DBFEDB7FEB73196ADB7BEB76C
:101510001196FC92E18285EE91E093838283D582DD
:10152000C48281E191E0978386832BE231E0DEC0C3
:1015300051E3B516E9F48DB79EB70A970FB6F89444
:101540009EBF0FBE8DBFEDB7FEB73196ADB7BEB72C
:101550001196FC92E18226E931E033832283D58221
:10156000C4828FE291E0978386838FEE91E07EC004
:101570008DB79EB70A970FB6F8949EBF0FBE8DBF6A
:10158000EDB7FEB73196ADB7BEB71196FC92E182CA
:1015900085EE91E093838283D582C48281E191E0DC
:1015A0009783868323E331E0A1C050E3B51609F0A9
:1015B000D7C48DB79EB70A970FB6F8949EBF0FBEDB
:1015C0008DBFEDB7FEB73196ADB7BEB71196FC92A1
:1015D000E18285EE91E093838283D582C48281E1AA
:1015E00091E09783868327E331E080C050E3B5160E
:1015F00009F0B6C48DB79EB70A970FB6F8949EBF90
:101600000FBE8DBFEDB7FEB73196ADB7BEB7119621
:10161000FC92E18285EE91E093838283D582C4823D
:1016200081E191E0978386832BE331E05FC051E352
:10163000B516F9F48DB79EB70A970FB6F8949EBF0A
:101640000FBE8DBFEDB7FEB73196ADB7BEB71196E1
:10165000FC92E18229ED31E033832283D582C4827A
:101660008FE391E09783868381E390E09187808781
:101670003FC08DB79EB70A970FB6F8949EBF0FBEB6
:101680008DBFEDB7FEB73196ADB7BEB71196FC92E0
:10169000E18285EE91E093838283D582C48281E1E9
:1016A00091E09783868323E431E020C050E3B516B0
:1016B00009F056C48DB79EB70A970FB6F8949EBF2F
:1016C0000FBE8DBFEDB7FEB73196ADB7BEB7119661
:1016D000FC92E18285EE91E093838283D582C4827D
:1016E00081E191E09783868327E431E03187208789
:1016F0000E9410114DB75EB7465F5F4F0FB6F8946A
:101700005EBF0FBE4DBF8FE290E00E94CA0F282E31
:10171000988B84E090E00E94CA0F482E392E6F2DDE
:101720007E2D0E945401EF2DFE2DDF010D90002033
:10173000E9F7CD0101978E1B9F0BA42DB32DFD0161
:1017400001900020E9F73197EA1BFB0B8E0F9F1FDA
:1017500005960E94CA0F182F092FEDB7FEB73C97C8
:101760000FB6F894FEBF0FBEEDBF3196ADB7BEB752
:1017700011968C9391832BE831E033832283F4829A
:10178000E582468237828DE090E0918780878AE00B
:1017900090E0938782870E9410114DB75EB7445F37
:1017A0005F4F0FB6F8945EBF0FBE4DBF8F2D9E2DBD
:1017B000612F702F0E94E010812F902F0E947710D0
:1017C0002C813D812F5F3F4FD3010D900020E9F721
:1017D000A619B70912974C815D81460D571D0EC0A1
:1017E000FA01928181818D3029F49A3019F44AE00E
:1017F00050E009C02F5F3F4F4F5F5F4F2A173B07F5
:1018000078F34FEF5FEF6C817D81660D771D2C8142
:101810003D81421B530B4F5F5F4F822D98890E9481
:10182000E710842D932D0E947710822D98896F2DBB
:101830007E2D0E94D710009729F4822D98890E944E
:1018400077108EC3822D98890E9477108F2D9E2D40
:101850000E94771030E3B31609F04BC021C05B81C2
:10186000513369F41F821E821E8E1D8EE1E3BE2E4F
:1018700046C08B81813319F091E3B916D1F10894F8
:10188000811C911CA4014F5F5F4F888599856FE58E
:1018900071E00E94F8031F821E821E8E1D8E2FC0D3
:1018A000AE81BF81AF30B10524F41196BF83AE8302
:1018B00026C0ED8DFE8D3196FE8FED8F34970CF0A6
:1018C00061C314C02E813F812F3031052CF42F5F6E
:1018D0003F4F3F832E8313C04D8D5E8D4F5F5F4F13
:1018E0005E8F4D8F443051050CF04CC31F821E8219
:1018F00006C01F821E821E8E1D8E70E3B72E59E019
:10190000851691040CF425CAAA24BB24C3010E94A5
:101910000401C301B40146E60E9493019E8F8D8F9E
:101920008C010F5F1F4F84E090E00E94CA0F582E79
:10193000492ED3010D900020E9F7A619B709139796
:101940008D8D9E8D860D971D9A838983AC0134C041
:10195000FA019281238181818A3231F54DB75EB7D8
:10196000485050400FB6F8945EBF0FBE4DBFEDB764
:10197000FEB73196ADB7BEB711965C92418244EF87
:1019800051E05383428394831582268317820E94F9
:10199000101109E210E08DB79EB708960FB6F894C3
:1019A0009EBF0FBE8DBF0EC09D3011F42A3041F096
:1019B0000F5F1F4F4F5F5F4F0A171B0748F244C06E
:1019C0000FEF1FEFAD8DBE8DA017B107ECF584E0D2
:1019D00090E00E94CA0FF82EE92EED8DFE8D0E1BB1
:1019E0001F0BC80103960E94CA0FD82EC92E6D8DF9
:1019F0007E8D6F5F7F4F660D771DA8010E94E710F7
:101A00008F2D9E2D6D2D7C2D0E9454018F2D9E2D8E
:101A1000652D742D0E94D710009771F4852D942D9B
:101A20000E9477108F2D9E2D0E9477108D2D9C2D5A
:101A30000E94771081E30DC08F2D9E2D0E9477109C
:101A40008D2D9C2D0E947710852D942D0E9477104E
:101A500080E32D8D3E8D37FD72C2813309F06FC258
:101A6000D3010D900020E9F71197A619B70920E0DE
:101A700030E00FEF1FEF44244A94542CAA24AA9478
:101A8000BA2CEE24EA94FE2CCC24CA94DC2C22241A
:101A90002A94322C47C0E981FA8180818D3009F483
:101AA00049C08A3009F446C08A3209F443C08C32F6
:101AB00061F52F5F3F4F23303105D1F024303105E0
:101AC0003CF42130310571F022303105F1F40DC0C4
:101AD0002930310599F02A30310599F02730310548
:101AE000A1F409C00D8D1E8D10C04D8C5E8C0DC0F3
:101AF000AD8CBE8C0AC0ED8CFE8C07C0CD8CDE8C0C
:101B000004C02D8C3E8C41E301C040E389819A8161
:101B100001969A838983403371F4ED8DFE8D319661
:101B2000FE8FED8F4D8D5E8D4A175B0708F4B3CFA6
:101B300040E301C041E35FEF0F3F150719F420E0D8
:101B400030E007C020E030E00415150514F421E072
:101B500030E04A145B0474F4AE14BF045CF4EC147B
:101B6000FD0444F480E090E0C214D3042CF481E03E
:101B700090E002C080E090E0232B09F4C5C1892BDE
:101B800009F4C2C1413309F0BFC184E090E00E9472
:101B9000CA0F898B9A8B84E090E00E94CA0F8B8BCE
:101BA0009C8B84E090E00E94CA0F8D8B9E8B85E019
:101BB00090E00E94CA0F8F8B988F8BE090E00E947C
:101BC000CA0F898F9A8F8BE090E00E94CA0F8B8F8B
:101BD0009C8F401A510A87E0481651040CF480C0CB
:101BE0002C183D0897E0291631040CF479C0B8018F
:101BF0006F5F7F4F660D771D89899A8942E050E0BB
:101C00000E94E7100D5F1F4FB301600F711F8B899A
:101C10009C8942E050E00E94E7100E5F1F4F060DC6
:101C2000171D8D899E89B80142E050E00E94E7109F
:101C3000B6016F5F7F4F660D771D8F89988D42E0EB
:101C400050E00E94E710B6016D5F7F4F660D771D73
:101C5000898D9A8D42E050E00E94E710B6016B5FDB
:101C60007F4F660D771D8B8D9C8D42E050E00E946A
:101C7000E710ADB7BEB750970FB6F894BEBF0FBE12
:101C8000ADBFEDB7FEB731962C8511962C933D85EF
:101C9000318349EF51E053834283598D54838A8DB8
:101CA00085839F899683A88DA783BB8DB0872C8D54
:101CB0002187398932874A8943875B8954878C8990
:101CC00085879D899687AE89A7870E941011EDB7F9
:101CD000FEB770960FB6F894FEBF0FBEEDBF06C0FC
:101CE0008C859D8561E172E00E94E010C7018A1930
:101CF0009B0945970CF487C025010894411C511C91
:101D0000F301EA0DFB1D09C081818E3451F031963B
:101D1000833539F00894411C511C4E145F04A4F320
:101D200072C0F301E40DF51D0081B5016F5F7F4FB7
:101D3000660D771D89899A8942E050E00E94E7107C
:101D4000B5016D5F7F4F660D771D4BEF5FEF4A1951
:101D50005B09440D551D898D9A8D0E94E710F30192
:101D6000EE0DFF1D31971081B2016E5F7F4F660D42
:101D7000771D8F89988D43E050E00E94E710B201F3
:101D80006B5F7F4F660D771DA70146505040441989
:101D900055098B8D9C8D0E94E7102DB73EB72051C1
:101DA00030400FB6F8943EBF0FBE2DBFEDB7FEB763
:101DB00031962A85ADB7BEB711962C933B853183FA
:101DC00047E152E053834283048315825989568345
:101DD0008A898783998D9087AA8DA1871287138618
:101DE000BF89B487288D25873B8D36874C8D4787E3
:101DF0000E9410118DB79EB740960FB6F8949EBF03
:101E00000FBE8DBF06C08A859B856DE272E00E9481
:101E1000E010C6018E199F0908970CF456C05701AF
:101E20000894A11CB11CF301EE0DFF1D08C08181B7
:101E3000319685010F5F1F4F8C3229F05801AC1489
:101E4000BD04ACF342C0B7016F5F7F4F660D771DD5
:101E5000E094F094EA0CFB1C898D9A8DA7010E94F6
:101E6000E710060D171D0894C108D108CA18DB0831
:101E70008B8D9C8DB801A6010E94E710ADB7BEB74F
:101E800018970FB6F894BEBF0FBEADBFEDB7FEB743
:101E900031962E8511962C933F85318343E352E092
:101EA000538342835B8D54838C8D8583998D968378
:101EB000AA8DA7830E941011EDB7FEB738960FB612
:101EC000F894FEBF0FBEEDBF06C08E859F856DE204
:101ED00072E00E94E01089899A890E9477108B89AC
:101EE0009C890E9477108D899E890E9477108F8926
:101EF000988D0E947710898D9A8D0E9477108B8D16
:101F00009C8D0E94771012C08C859D856DE272E0D9
:101F10000E94E0108A859B856DE272E00E94E010CD
:101F20008E859F856DE272E00E94E010888599851C
:101F30006A857B854FEF5FEF0E94F803E5CCF3E203
:101F4000AF16B1044CF0888599856AE472E04FEFD2
:101F50005FEF0E94F803DACC0894A11CB11CD6CC28
:101F60008F2D9E2D0E94771040E3B41609F081CC8E
:101F700076CC4CE10C94350640E10C94350641E1F9
:101F80000C943506882499241F821E8261E3B62EA4
:101F90000C94A906CF93DF93BC018230910510F415
:101FA00062E070E0A0916A02B0916B02ED01E0E0A6
:101FB000F0E040E050E021C08881998186179707C2
:101FC00069F48A819B81309719F09383828304C0DE
:101FD00090936B0280936A02FE0134C06817790700
:101FE00038F44115510519F08417950708F4AC0130
:101FF000FE018A819B819C01E9012097E9F6411548
:102000005105A9F1CA01861B970B049708F4BA0180
:10201000E0E0F0E02AC08D919C911197841795071C
:10202000F9F46417750781F412968D919C911397BA
:10203000309719F09383828304C090936B0280934E
:102040006A02FD0132964FC0CA01861B970BFD0143
:10205000E80FF91F6193719302978D939C9343C08E
:10206000FD01828193819C01D9011097A1F6809195
:10207000680290916902892B41F4809164029091E9
:1020800065029093690280936802409166025091C4
:1020900067024115510541F44DB75EB78091620268
:1020A00090916302481B590B20916802309169029C
:1020B00024173507B0F4CA01821B930B86179707C4
:1020C00080F0AB014E5F5F4F8417950750F0420FD1
:1020D000531F5093690240936802F9016193719311
:1020E00002C0E0E0F0E0CF01DF91CF910895CF93FF
:1020F000DF93009709F450C0EC0122971B821A82EB
:10210000A0916A02B0916B02109709F140E050E093
:10211000AC17BD0708F1BB83AA83FE012191319161
:10212000E20FF31FAE17BF0779F48D919C911197C1
:10213000280F391F2E5F3F4F3983288312968D91C8
:102140009C9113979B838A834115510571F4D09319
:102150006B02C0936A0220C012968D919C911397D6
:10216000AD01009711F0DC01D3CFFA01D383C28314
:1021700021913191E20FF31FCE17DF0769F48881B7
:102180009981280F391F2E5F3F4FFA013183208339
:102190008A819B8193838283DF91CF9108959111EE
:1021A000089581568A5108F4805285580895FB019C
:1021B000DC018D91019080190110D9F3990B0895DC
:1021C000FB01DC0101900D920020E1F70895FB0175
:1021D000DC014150504048F001900D920020C9F7B9
:1021E00001C01D9241505040E0F70895FB0151910C
:1021F0005523A9F0BF01DC014D9145174111E1F7CD
:1022000059F4CD010190002049F04D914015411144
:10221000C9F3FB014111EFCF81E090E001970895F0
:10222000AEE0B0E0E6E1F1E10C94BF130D891E8948
:1022300086E08C831A8309838FEF9FE79E838D83CB
:102240009E01275E3F4FCE0101966F89788DA901CF
:102250000E9434112F813885020F131FF80110825C
:102260002E96E4E00C94DB13ABE0B0E0EAE3F1E19E
:102270000C94B1133C012B015A01FC011782168208
:10228000838181FD03C06FEF7FEFC6C19AE0892E85
:102290001E010894211C311CF3012381F20123FD4E
:1022A000859123FF81912F01882309F4B2C18532E2
:1022B00039F423FD859123FF81912F01853229F483
:1022C00090E0B3010E942713E7CF982FFF24EE245C
:1022D0009924FFE1FF15D0F09B3269F09C3228F47D
:1022E000903259F0933291F40EC09D3249F0903300
:1022F00069F441E024C052E0F52A84E0F82A28C0BD
:1023000098E0F92A25C0E0E1FE2A22C0F7FC29C0A6
:10231000892F80538A3070F4F6FE05C0989C902C6B
:102320001124980E15C0E89CE02C1124E80EF0E270
:10233000FF2A0EC09E3229F4F6FC6BC140E4F42A59
:1023400007C09C3619F450E8F52A02C0983649F4C3
:10235000F20123FD959123FF91912F01992309F01B
:10236000B8CF892F8554833018F08052833038F4E9
:1023700044E050E0A40EB51E5FE359830FC09336CE
:1023800031F0933779F0933509F056C020C0F5014C
:102390008081898342E050E0A40EB51E610101E016
:1023A00010E012C0F501C080D180F6FC03C06FEFD1
:1023B0007FEF02C0692D70E042E050E0A40EB51E30
:1023C000C6010E941C138C015FE7F52214C0F501C1
:1023D000C080D180F6FC03C06FEF7FEF02C0692D93
:1023E00070E042E050E0A40EB51EC6010E94111339
:1023F0008C0150E8F52AF3FE07C01AC080E290E095
:10240000B3010E942713EA948E2D90E00817190754
:10241000A8F30EC0F601F7FC8591F7FE81916F01DC
:1024200090E0B3010E942713E110EA94015010409C
:102430000115110579F7EAC0943611F0993669F55E
:10244000F7FE08C0F501208131814281538184E08B
:1024500090E00AC0F501808191819C01442737FDFD
:102460004095542F82E090E0A80EB91E9FE6F92215
:1024700057FF09C050954095309521953F4F4F4FDC
:102480005F4FE0E8FE2ACA01B901A1012AE030E06D
:102490000E945313D82ED21840C0953729F41F2D0F
:1024A0001F7E2AE030E01DC01F2D197F9F3661F08E
:1024B000903720F4983509F0ACC00FC0903739F050
:1024C000983709F0A6C004C028E030E00AC01061C7
:1024D00014FD146020E130E004C014FD166020E11A
:1024E00032E017FF08C0F50160817181828193811C
:1024F00044E050E008C0F50180819181BC0180E09A
:1025000090E042E050E0A40EB51EA1010E945313DA
:10251000D82ED2188FE7F82EF122F6FE0BC05EEF10
:10252000F522D91438F4F4FE07C0F2FC05C08FEE92
:10253000F82202C01D2D01C0192DF4FE0DC0FE01B0
:10254000ED0DF11D8081803319F499EEF92208C058
:102550001F5FF2FE05C003C08F2D867809F01F5F54
:102560000F2DF3FC14C0F0FE0FC01E1510F09D2CB3
:102570000BC09D2C9E0C911A1E2D06C080E290E08F
:10258000B3010E9427131F5F1E15C0F304C01E1560
:1025900010F4E11A01C0EE2404FF0FC080E390E0C4
:1025A000B3010E94271302FF1DC001FD03C088E78D
:1025B00090E00EC088E590E00BC0802F867891F007
:1025C00001FF02C08BE201C080E2F7FC8DE290E0E7
:1025D000B3010E94271306C080E390E0B3010E947C
:1025E00027139A94D914C0F3DA94F101ED0DF11D7B
:1025F000808190E0B3010E942713DD20A9F706C077
:1026000080E290E0B3010E942713EA94EE20C1F724
:1026100043CEF30166817781CB012B96E2E10C94E6
:10262000CD13FC010590615070400110D8F78095E2
:1026300090958E0F9F1F0895FC016150704001908E
:102640000110D8F7809590958E0F9F1F08950F93D6
:102650001F93CF93DF938C01EB018B8181FF1BC014
:1026600082FF0DC02E813F818C819D812817390703
:1026700064F4E881F9810193F983E88306C0E88571
:10268000F985802F0995892B31F48E819F810196E0
:102690009F838E8302C00FEF1FEFC801DF91CF91A0
:1026A0001F910F910895FA01AA27283051F1203186
:1026B00081F1E8946F936E7F6E5F7F4F8F4F9F4FD6
:1026C000AF4FB1E03ED0B4E03CD0670F781F891F18
:1026D0009A1FA11D680F791F8A1F911DA11D6A0FE6
:1026E000711D811D911DA11D20D009F468943F9199
:1026F0002AE0269F11243019305D3193DEF6CF0198
:102700000895462F4770405D4193B3E00FD0C9F75D
:10271000F6CF462F4F70405D4A3318F0495D31FDCA
:102720004052419302D0A9F7EACFB4E0A69597951D
:10273000879577956795BA95C9F7009761057105F3
:1027400008959B01AC010A2E06945795479537953D
:102750002795BA95C9F7620F731F841F951FA01D97
:1027600008952F923F924F925F926F927F928F9235
:102770009F92AF92BF92CF92DF92EF92FF920F9310
:102780001F93CF93DF93CDB7DEB7CA1BDB0B0FB61A
:10279000F894DEBF0FBECDBF09942A8839884888D7
:1027A0005F846E847D848C849B84AA84B984C8846D
:1027B000DF80EE80FD800C811B81AA81B981CE0F64
:1027C000D11D0FB6F894DEBF0FBECDBFED01089549
:0427D000F894FFCFAB
:1027D40025780024257325732C257300504D544B04
:1027E4000030303100303030003235310024257370
:1027F4002573003531340033313400323230003542
:102804003237003338360033353100333532003552
:102814003133003331330032383600242573004716
:1028240050524D430025732569206F6620390049B5
:102834006E697469616C697A696E672E2E2E0A530B
:1028440074616765200025732573003130310031D0
:1028540030320031303300313034002425732A25DE
:10286400732563256300257325732C25730039367E
:1028740030300034313400302C312C302C302C30BA
:102884002C302C302C302C302C302C302C302C3064
:102894002C302C302C302C302C302C30003230307A
:1028A4000034343700302E3200257325732C256311
:1028B4000034313300257325732C25732C330030F9
:1028C4002E323000256325630025732F25732F32A4
:1028D4003025730A25733A25733A257320555443DA
:1028E400004552524F52002563202573B0202573B2
:1028F400270A2563202573B02025732700457272AB
:102904006F720048656164696E67202573B00A4080
:10291400202573206B6E6F7473005369676E616C4E
:1029240020537472656E6774680A546F6F204C6F1D
:08293400770020006C02000096
:00000001FF
